S0200000536D617274486F6D6550726F6A6563745F41424F524159412E737265633F
S11300000C942A000C943F000C943F000C943F0085
S11300100C943F000C943F000C943F000C943F0060
S11300200C943F000C943F000C943F000C943F0050
S11300300C943F000C943F000C943F000C943F0040
S11300400C943F000C943F000C943F000C943F0030
S11300500C943F0011241FBECFE5D8E0DEBFCDBF16
S113006010E0A0E6B0E0ECE1F4E002C005900D92EF
S1130070A036B107D9F70E94A1010C940C020C948C
S11300800000843008F07BC0683008F07AC0411169
S11300903CC0813099F028F08230E9F0833041F19E
S11300A072C02AB381E090E002C0880F991F6A955C
S11300B0E2F7809582238ABB80E0089527B381E02C
S11300C090E002C0880F991F6A95E2F78095822319
S11300D087BB80E0089524B381E090E002C0880FDC
S11300E0991F6A95E2F78095822384BB80E0089586
S11300F021B381E090E002C0880F991F6A95E2F76E
S11301008095822381BB80E008954130F1F58130F0
S113011091F028F08230D9F0833029F138C02AB325
S113012081E090E002C0880F991F6A95E2F7822B64
S11301308ABB80E0089527B381E090E002C0880F75
S1130140991F6A95E2F7822B87BB80E0089524B358
S113015081E090E002C0880F991F6A95E2F7822B34
S113016084BB80E0089521B381E090E002C0880F51
S1130170991F6A95E2F7822B81BB80E0089581E0A4
S1130180089581E0089581E0089581E0089581E073
S11301900895843008F07BC0683008F07AC041309C
S11301A0C1F5813091F028F08230D9F0833029F103
S11301B072C02BB381E090E002C0880F991F6A954A
S11301C0E2F7822B8BBB80E0089528B381E090E0B6
S11301D002C0880F991F6A95E2F7822B88BB80E0E2
S11301E0089525B381E090E002C0880F991F6A95B5
S11301F0E2F7822B85BB80E0089522B381E090E092
S113020002C0880F991F6A95E2F7822B82BB80E0B7
S11302100895411142C0813099F028F08230E9F00C
S1130220833041F13CC02BB381E090E002C0880FE1
S1130230991F6A95E2F7809582238BBB80E008952D
S113024028B381E090E002C0880F991F6A95E2F715
S11302508095822388BB80E0089525B381E090E0F7
S113026002C0880F991F6A95E2F78095822385BBA7
S113027080E0089522B381E090E002C0880F991FC6
S11302806A95E2F78095822382BB80E0089581E03D
S1130290089581E0089581E0089581E0089581E062
S11302A00895843060F5683060F5813081F018F08D
S11302B08230C9F028C089B390E002C09595879533
S11302C06A95E2F78170FA01808380E0089586B32D
S11302D090E002C0959587956A95E2F78170FA01DE
S11302E0808380E0089583B390E002C0959587955C
S11302F06A95E2F78170FA01808380E0089581E0D5
S1130300089581E0089581E0089587E689B986E833
S113031080BD8AB18B7F8AB98AB188608AB98AB173
S113032080618AB940E060E083E00E94410041E0DE
S113033061E083E00E94410008958CB95D9BFECF8B
S11303400895CF93DF9300D000D0CDB7DEB71982E4
S11303501A821B821C820E94850140E060E080E0DA
S11303600E94410040E061E080E00E94410040E0E2
S113037062E080E00E94410040E067E081E00E948A
S1130380410041E060E080E00E94C90041E061E09A
S113039080E00E94C90041E062E080E00E94C90060
S11303A041E067E081E00E94C900AE014F5F5F4F0A
S11303B060E080E00E945101AE014E5F5F4F61E05A
S11303C080E00E945101AE014D5F5F4F62E080E02A
S11303D00E945101AE014C5F5F4F67E081E00E94D3
S11303E051018981811102C081E001C080E09A81BC
S11303F0911102C0826001C08D7F9B81911102C066
S1130400846001C08B7F9C81911102C0806801C00F
S10F04108F770E949D01C9CFF894FFCFA4
S9030000FC
