S0210000536D617274486F6D6550726F6A6563745F41424F52415941322E737265630C
S11300000C942A000C943F000C943F000C943F0085
S11300100C943F000C943F000C943F000C943F0060
S11300200C943F000C943F000C943F000C943F0050
S11300300C943F000C943F000C943F000C943F0040
S11300400C943F000C943F000C943F000C943F0030
S11300500C943F0011241FBECFE5D8E0DEBFCDBF16
S113006010E0A0E6B0E0E8E4F8E002C005900D92EC
S1130070A03BB107D9F70E944F030C9422040C94BF
S11300800000843008F07BC0683008F07AC0411169
S11300903CC0813099F028F08230E9F0833041F19E
S11300A072C02AB381E090E002C0880F991F6A955C
S11300B0E2F7809582238ABB80E0089527B381E02C
S11300C090E002C0880F991F6A95E2F78095822319
S11300D087BB80E0089524B381E090E002C0880FDC
S11300E0991F6A95E2F78095822384BB80E0089586
S11300F021B381E090E002C0880F991F6A95E2F76E
S11301008095822381BB80E008954130F1F58130F0
S113011091F028F08230D9F0833029F138C02AB325
S113012081E090E002C0880F991F6A95E2F7822B64
S11301308ABB80E0089527B381E090E002C0880F75
S1130140991F6A95E2F7822B87BB80E0089524B358
S113015081E090E002C0880F991F6A95E2F7822B34
S113016084BB80E0089521B381E090E002C0880F51
S1130170991F6A95E2F7822B81BB80E0089581E0A4
S1130180089581E0089581E0089581E0089581E073
S11301900895843008F07BC0683008F07AC041309C
S11301A0C1F5813091F028F08230D9F0833029F103
S11301B072C02BB381E090E002C0880F991F6A954A
S11301C0E2F7822B8BBB80E0089528B381E090E0B6
S11301D002C0880F991F6A95E2F7822B88BB80E0E2
S11301E0089525B381E090E002C0880F991F6A95B5
S11301F0E2F7822B85BB80E0089522B381E090E092
S113020002C0880F991F6A95E2F7822B82BB80E0B7
S11302100895411142C0813099F028F08230E9F00C
S1130220833041F13CC02BB381E090E002C0880FE1
S1130230991F6A95E2F7809582238BBB80E008952D
S113024028B381E090E002C0880F991F6A95E2F715
S11302508095822388BB80E0089525B381E090E0F7
S113026002C0880F991F6A95E2F78095822385BBA7
S113027080E0089522B381E090E002C0880F991FC6
S11302806A95E2F78095822382BB80E0089581E03D
S1130290089581E0089581E0089581E0089581E062
S11302A008958430A0F4813049F028F0823049F078
S11302B0833051F00EC06BBB80E0089568BB80E0D2
S11302C0089565BB80E0089562BB80E0089581E0F5
S11302D0089581E00895843060F5683060F58130D8
S11302E081F018F08230C9F028C089B390E002C0D0
S11302F0959587956A95E2F78170FA01808380E08D
S1130300089586B390E002C0959587956A95E2F7C3
S11303108170FA01808380E0089583B390E002C085
S1130320959587956A95E2F78170FA01808380E05C
S1130330089581E0089581E0089581E0089587E6B5
S113034089B986E880BD8AB18B7F8AB98AB1886011
S11303508AB98AB180618AB940E060E083E00E9492
S1130360410041E061E083E00E94410008955F9B09
S1130370FECF8CB108958FB58E7F8FBD8FB582600F
S11303808FBD8EB588608EBD8EB580618EBD8FB5F4
S11303908F7B8FBD8FB580688FBD81B3806281BB39
S11303A087E893E197BD86BD08958EB581608EBDC3
S11303B08EB582608EBD8EB58B7F8EBD08959BBD3C
S11303C08ABD0895CF93C82F40E061E080E00E9489
S11303D0C90040E060E080E00E94C9006C2F82E028
S11303E00E94510141E062E080E00E94C90089EF6F
S11303F090E00197F1F700C0000040E062E080E087
S11304000E94C90080E0CF9108958FE097E20197A0
S1130410F1F700C0000041E061E080E00E9441008B
S113042041E060E080E00E94410041E062E080E061
S11304300E94410041E060E082E00E94410041E00E
S113044061E082E00E94410041E062E082E00E94BB
S1130450410041E063E082E00E94410041E064E049
S113046082E00E94410041E065E082E00E94410098
S113047041E066E082E00E94410041E067E082E002
S11304800E94410088E30E94E2018CE00E94E201A4
S113049081E00E94E2010895CF93C82F41E061E01A
S11304A080E00E94C90040E060E080E00E94C90052
S11304B06C2F82E00E94510141E062E080E00E94E2
S11304C0C90083EF91E00197F1F700C0000040E01C
S11304D062E080E00E94C90080E0CF9108950F930C
S11304E01F93CF938C01C0E003C00E944C02CF5FE6
S11304F0F801EC0FF11D80818111F7CFCF911F918D
S11305000F91089581E00E94E20183EF91E0019749
S1130510F1F700C00000089541E00E9441000895F1
S1130520413019F40E94C9000895411102C00E948B
S1130530C900089541E064E081E00E94410041E087
S113054065E081E00E94410041E066E081E00E94B4
S1130550410041E067E081E00E94410040E060E04A
S113056081E00E94410040E061E081E00E9441009E
S113057040E062E081E00E94410040E063E081E00D
S11305800E9441006FEF81E00E9451010895AF92F3
S1130590BF92CF92DF92EF92FF920F931F93CF936C
S11305A0DF93CDB7DEB764970FB6F894DEBF0FBE06
S11305B0CDBF84E08A8385E08B8386E08C831D82B3
S11305C081E08E8382E08F8383E088878CE0E0E69D
S11305D0F0E0DE01199601900D928A95E1F7B12CB5
S11305E048C0CB2CD12CE2E0F0E0EC0FFD1FEC0D69
S11305F0FD1DA08040E06A2D81E00E94C90010E04A
S113060030C0E12EF12CE5E0F0E0EC0FFD1FEE0D23
S1130610FF1D0081AE014F5F5F4F602F81E00E949C
S11306206B01898181111CC0C701880F991FE80ED5
S1130630F91E81E090E08C0F9D1FE80EF91EF70172
S1130640EC0DFD1D108507C0AE014F5F5F4F602F9D
S113065081E00E946B0199819923B1F3812F0EC02F
S11306601F5F143070F241E06A2D81E00E94C900DE
S1130670B39492E09B1508F0B4CF8FEF64960FB655
S1130680F894DEBF0FBECDBFDF91CF911F910F91C4
S1130690FF90EF90DF90CF90BF90AF900895CF93ED
S11306A0DF9300D000D0CDB7DEB70E949A020E943B
S11306B005020E949F0167E081E00E948C020E9473
S11306C0BB0181E3898382E38A8383E38B8384E3AD
S11306D08C83F12C11E000E002C011E000E00E94E4
S11306E0C7028F3FE1F3833291F08A3209F091C05F
S11306F00E9482020E94B70107C00E9482020E94E7
S1130700B70100E011E0F12C8823BCF3E8CF11110C
S113071035C00E9482028CE690E00E946F022FE3B3
S11307208DE093E0215080409040E1F700C000004C
S11307300E948202F3940E94B70105C00E948202C3
S11307400E94B701F12C8823CCF323E0F212C5CF29
S11307508BE790E00E946F0240E067E081E00E9436
S113076090020E94B70105C00E9482020E94B70154
S1130770F12C8823CCF311E000E0B1CF113009F063
S1130780AECF0E9482028CE890E00E946F028FE359
S11307909DE023E0815090402040E1F700C000003C
S11307A00E94820284E990E00E946F0289EF90E047
S11307B00E94DF010E94D5018FE392E42FE0815073
S11307C090402040E1F700C000000E94820281EACC
S11307D090E00E946F028FE39DE023E081509040FF
S11307E02040E1F700C0000083EF91E00E94DF01A8
S11307F00E94D5010E94B701912F07C00E94820276
S11308000E94B70100E0F12C912F8823BCF3192F2B
S113081066CFE1E0F0E0EC0FFD1FE00FF11D9081E9
S1130820891310E00E944C020F5F0E94B70107C0B9
S11308300E9482020E94B70100E011E0F12C88239B
S10B0840BCF34DCFF894FFCF87
S11308483132333435363738392A302357726F6E9C
S1130858672050617373776F72640053797374659A
S11308686D204C6F636B65645E5F5E0057656C63F7
S11308786F6D6500446F6F72204973204F70656E09
S113088800446F6F7220497320436C6F7365640072
S9030000FC
