:100000000C942A000C943F000C943F000C943F0089
:100010000C943F000C943F000C943F000C943F0064
:100020000C943F000C943F000C943F000C943F0054
:100030000C943F000C943F000C943F000C943F0044
:100040000C943F000C943F000C943F000C943F0034
:100050000C943F0011241FBECFE5D8E0DEBFCDBF1A
:1000600010E0A0E6B0E0EEEAF7E002C005900D92E5
:10007000A038B107D9F70E9400030C94D5030C9463
:100080000000843008F07BC0683008F07AC041116D
:100090003CC0813099F028F08230E9F0833041F1A2
:1000A00072C02AB381E090E002C0880F991F6A9560
:1000B000E2F7809582238ABB80E0089527B381E030
:1000C00090E002C0880F991F6A95E2F7809582231D
:1000D00087BB80E0089524B381E090E002C0880FE0
:1000E000991F6A95E2F78095822384BB80E008958A
:1000F00021B381E090E002C0880F991F6A95E2F772
:100100008095822381BB80E008954130F1F58130F4
:1001100091F028F08230D9F0833029F138C02AB329
:1001200081E090E002C0880F991F6A95E2F7822B68
:100130008ABB80E0089527B381E090E002C0880F79
:10014000991F6A95E2F7822B87BB80E0089524B35C
:1001500081E090E002C0880F991F6A95E2F7822B38
:1001600084BB80E0089521B381E090E002C0880F55
:10017000991F6A95E2F7822B81BB80E0089581E0A8
:10018000089581E0089581E0089581E0089581E077
:100190000895843008F07BC0683008F07AC04130A0
:1001A000C1F5813091F028F08230D9F0833029F107
:1001B00072C02BB381E090E002C0880F991F6A954E
:1001C000E2F7822B8BBB80E0089528B381E090E0BA
:1001D00002C0880F991F6A95E2F7822B88BB80E0E6
:1001E000089525B381E090E002C0880F991F6A95B9
:1001F000E2F7822B85BB80E0089522B381E090E096
:1002000002C0880F991F6A95E2F7822B82BB80E0BB
:100210000895411142C0813099F028F08230E9F010
:10022000833041F13CC02BB381E090E002C0880FE5
:10023000991F6A95E2F7809582238BBB80E0089531
:1002400028B381E090E002C0880F991F6A95E2F719
:100250008095822388BB80E0089525B381E090E0FB
:1002600002C0880F991F6A95E2F78095822385BBAB
:1002700080E0089522B381E090E002C0880F991FCA
:100280006A95E2F78095822382BB80E0089581E041
:10029000089581E0089581E0089581E0089581E066
:1002A00008958430A0F4813049F028F0823049F07C
:1002B000833051F00EC06BBB80E0089568BB80E0D6
:1002C000089565BB80E0089562BB80E0089581E0F9
:1002D000089581E00895843060F5683060F58130DC
:1002E00081F018F08230C9F028C089B390E002C0D4
:1002F000959587956A95E2F78170FA01808380E091
:10030000089586B390E002C0959587956A95E2F7C7
:100310008170FA01808380E0089583B390E002C089
:10032000959587956A95E2F78170FA01808380E060
:10033000089581E0089581E0089581E0089587E6B9
:1003400089B986E880BD8AB18B7F8AB98AB1886015
:100350008AB98AB180618AB940E060E083E00E9496
:10036000410041E061E083E00E94410008955F9B0D
:10037000FECF8CB1089587B1806487B987B18F773C
:1003800087B987B18F7D87B986B18F7D86B986B1F0
:10039000816086B986B1826086B986B1846086B98B
:1003A00086B1806886B908958032B0F46115710510
:1003B00099F097B1907E97B997B1892B87B986B19B
:1003C000806486B9349BFECF86B1806186B984B1E2
:1003D00095B1FB01918380830895CF93C82F40E0AE
:1003E00061E080E00E94C90040E060E080E00E949F
:1003F000C9006C2F82E00E94510141E062E080E080
:100400000E94C90089EF90E00197F1F700C0000059
:1004100040E062E080E00E94C90080E0CF91089552
:100420008FE097E20197F1F700C0000041E061E042
:1004300080E00E94410041E060E080E00E944100D5
:1004400041E062E080E00E94410041E060E082E043
:100450000E94410041E061E082E00E94410041E0F1
:1004600062E082E00E94410041E063E082E00E949D
:10047000410041E064E082E00E94410041E065E02B
:1004800082E00E94410041E066E082E00E9441007B
:1004900041E067E082E00E94410088E30E94ED01B4
:1004A0008CE00E94ED0181E00E94ED010895CF9360
:1004B000C82F41E061E080E00E94C90040E060E0B8
:1004C00080E00E94C9006C2F82E00E94510141E04F
:1004D00062E080E00E94C90083EF91E00197F1F7AC
:1004E00000C0000040E062E080E00E94C90080E0BF
:1004F000CF9108950F931F93CF938C01C0E003C059
:100500000E945702CF5FF801EC0FF11D808181112D
:10051000F7CFCF911F910F910895882329F0813053
:1005200021F490E4960F01C0962F80E8890F0E9475
:10053000ED01089581E00E94ED0183EF91E00197C4
:10054000F1F700C000000895CF92DF92EF92FF9282
:100550000F931F938B019C01672B682B692B49F527
:1005600080E30E94570245C0DC01CB01880F991F30
:10057000AA1FBB1F6C017D01CC0CDD1CEE1CFF1CF7
:10058000CC0CDD1CEE1CFF1CC80ED91EEA1EFB1E87
:10059000C901B8012AE030E040E050E00E94B30316
:1005A0006C0D7D1D8E1D9F1D022F132F242F352FA7
:1005B00004C061E070E080E090E0011511052105C4
:1005C000310591F62AE030E040E050E00E94B303AC
:1005D000E22EF32E042F152F80E3860F0E94570280
:1005E0006E2D7F2D802F912F613071058105910532
:1005F00049F71F910F91FF90EF90DF90CF900895F2
:10060000CF93DF9300D0CDB7DEB719821A820E9454
:100610009F010E94100241E062E083E00E944100DD
:1006200040E065E080E00E9441000E94BB0141E0A3
:1006300067E083E00E94410040E060E081E00E94CA
:10064000410041E060E081E00E94C900BE016F5FAF
:100650007F4F85E00E94D401298184EF91E0289F9B
:10066000B001299F700D1124072E000C880B990BE7
:100670002FEF33E040E050E00E94B30369017A01BC
:10068000122FAE014E5F5F4F60E081E00E946B0170
:100690001E31C8F041E067E083E00E94C90060E0DD
:1006A00081E00E948D0280E690E00E947A02C701FC
:1006B000B6017727882799270E94A40287E690E051
:1006C0000E947A0207C00E949A0240E067E083E03D
:1006D0000E94C9000E94B70181FF2FC08A81811149
:1006E00016C041E062E083E00E94C90060E080E063
:1006F0000E948D028AE690E00E947A028FE493ECD9
:100700000197F1F700C000000E949A029FCF40E0DD
:1007100062E083E00E94C90060E080E00E948D02F8
:1007200084E790E00E947A028FE493EC0197F1F75E
:1007300000C000000E949A0289CF40E062E083E09E
:100740000E94C90060E080E00E948D0284E790E092
:100750000E947A028FE493EC0197F1F700C0000049
:100760000E949A0273CFA1E21A2EAA1BBB1BFD01A5
:100770000DC0AA1FBB1FEE1FFF1FA217B307E40780
:10078000F50720F0A21BB30BE40BF50B661F771FD8
:10079000881F991F1A9469F76095709580959095B8
:0E07A0009B01AC01BD01CF010895F894FFCF7D
:1007AE0054656D703D20002043004C6564204F6EF3
:1007BE00203A29004C6564204F6666203A280000D6
:00000001FF
